{
  "contractName": "Roulette",
  "abi": [
    {
      "constant": false,
      "inputs": [],
      "name": "launch",
      "outputs": [],
      "payable": false,
      "stateMutability": "nonpayable",
      "type": "function"
    },
    {
      "constant": true,
      "inputs": [
        {
          "name": "",
          "type": "uint256"
        }
      ],
      "name": "bets",
      "outputs": [
        {
          "name": "betType",
          "type": "uint8"
        },
        {
          "name": "player",
          "type": "address"
        },
        {
          "name": "number",
          "type": "uint256"
        },
        {
          "name": "value",
          "type": "uint256"
        }
      ],
      "payable": false,
      "stateMutability": "view",
      "type": "function"
    },
    {
      "constant": true,
      "inputs": [
        {
          "name": "betType",
          "type": "uint8"
        }
      ],
      "name": "getPayoutForType",
      "outputs": [
        {
          "name": "",
          "type": "uint256"
        }
      ],
      "payable": false,
      "stateMutability": "view",
      "type": "function"
    },
    {
      "constant": true,
      "inputs": [],
      "name": "nextRoundTimestamp",
      "outputs": [
        {
          "name": "",
          "type": "uint256"
        }
      ],
      "payable": false,
      "stateMutability": "view",
      "type": "function"
    },
    {
      "constant": true,
      "inputs": [],
      "name": "getResultNumber",
      "outputs": [
        {
          "name": "",
          "type": "uint256"
        }
      ],
      "payable": false,
      "stateMutability": "view",
      "type": "function"
    },
    {
      "constant": false,
      "inputs": [
        {
          "name": "number",
          "type": "uint256"
        }
      ],
      "name": "betSingle",
      "outputs": [],
      "payable": true,
      "stateMutability": "payable",
      "type": "function"
    },
    {
      "constant": true,
      "inputs": [],
      "name": "getOwner",
      "outputs": [
        {
          "name": "",
          "type": "address"
        }
      ],
      "payable": false,
      "stateMutability": "view",
      "type": "function"
    },
    {
      "constant": true,
      "inputs": [],
      "name": "result_number",
      "outputs": [
        {
          "name": "",
          "type": "uint256"
        }
      ],
      "payable": false,
      "stateMutability": "view",
      "type": "function"
    },
    {
      "constant": false,
      "inputs": [],
      "name": "betEven",
      "outputs": [],
      "payable": true,
      "stateMutability": "payable",
      "type": "function"
    },
    {
      "constant": true,
      "inputs": [],
      "name": "_owner",
      "outputs": [
        {
          "name": "",
          "type": "address"
        }
      ],
      "payable": false,
      "stateMutability": "view",
      "type": "function"
    },
    {
      "constant": true,
      "inputs": [],
      "name": "getNextRoundTimestamp",
      "outputs": [
        {
          "name": "",
          "type": "uint256"
        }
      ],
      "payable": false,
      "stateMutability": "view",
      "type": "function"
    },
    {
      "constant": true,
      "inputs": [],
      "name": "getBetsCountAndValue",
      "outputs": [
        {
          "name": "",
          "type": "uint256"
        },
        {
          "name": "",
          "type": "uint256"
        }
      ],
      "payable": false,
      "stateMutability": "view",
      "type": "function"
    },
    {
      "constant": false,
      "inputs": [],
      "name": "betOdd",
      "outputs": [],
      "payable": true,
      "stateMutability": "payable",
      "type": "function"
    },
    {
      "inputs": [
        {
          "name": "interval",
          "type": "uint256"
        }
      ],
      "payable": true,
      "stateMutability": "payable",
      "type": "constructor"
    },
    {
      "anonymous": false,
      "inputs": [
        {
          "indexed": false,
          "name": "number",
          "type": "uint256"
        },
        {
          "indexed": false,
          "name": "nextRoundTimestamp",
          "type": "uint256"
        }
      ],
      "name": "Finished",
      "type": "event"
    },
    {
      "anonymous": false,
      "inputs": [
        {
          "indexed": false,
          "name": "bet",
          "type": "uint256"
        },
        {
          "indexed": false,
          "name": "player",
          "type": "address"
        },
        {
          "indexed": false,
          "name": "number",
          "type": "uint256"
        },
        {
          "indexed": false,
          "name": "value",
          "type": "uint256"
        }
      ],
      "name": "NewSingleBet",
      "type": "event"
    },
    {
      "anonymous": false,
      "inputs": [
        {
          "indexed": false,
          "name": "bet",
          "type": "uint256"
        },
        {
          "indexed": false,
          "name": "player",
          "type": "address"
        },
        {
          "indexed": false,
          "name": "value",
          "type": "uint256"
        }
      ],
      "name": "NewEvenBet",
      "type": "event"
    },
    {
      "anonymous": false,
      "inputs": [
        {
          "indexed": false,
          "name": "bet",
          "type": "uint256"
        },
        {
          "indexed": false,
          "name": "player",
          "type": "address"
        },
        {
          "indexed": false,
          "name": "value",
          "type": "uint256"
        }
      ],
      "name": "NewOddBet",
      "type": "event"
    }
  ],
  "bytecode": "0x6060604052604051602080611046833981016040528080519060200190919050508060018190555033600260006101000a81548173ffffffffffffffffffffffffffffffffffffffff021916908373ffffffffffffffffffffffffffffffffffffffff1602179055506001544201600081905550600060038190555050610fbb8061008b6000396000f3006060604052600436106100c5576000357c0100000000000000000000000000000000000000000000000000000000900463ffffffff16806301339c21146100ca57806322af00fa146100df57806326eafae9146101655780634bb0948d1461019f5780634e063fcd146101c8578063703bf91f146101f1578063893d20e814610209578063ab69e0241461025e578063adde36bb14610287578063b2bdfa7b14610291578063b633b2ab146102e6578063ef37cfe91461030f578063f45190351461033f575b600080fd5b34156100d557600080fd5b6100dd610349565b005b34156100ea57600080fd5b6101006004808035906020019091905050610653565b6040518085600281111561011057fe5b60ff1681526020018473ffffffffffffffffffffffffffffffffffffffff1673ffffffffffffffffffffffffffffffffffffffff16815260200183815260200182815260200194505050505060405180910390f35b341561017057600080fd5b610189600480803560ff169060200190919050506106bf565b6040518082815260200191505060405180910390f35b34156101aa57600080fd5b6101b261073a565b6040518082815260200191505060405180910390f35b34156101d357600080fd5b6101db610740565b6040518082815260200191505060405180910390f35b610207600480803590602001909190505061074a565b005b341561021457600080fd5b61021c610996565b604051808273ffffffffffffffffffffffffffffffffffffffff1673ffffffffffffffffffffffffffffffffffffffff16815260200191505060405180910390f35b341561026957600080fd5b6102716109c0565b6040518082815260200191505060405180910390f35b61028f6109c6565b005b341561029c57600080fd5b6102a4610bfc565b604051808273ffffffffffffffffffffffffffffffffffffffff1673ffffffffffffffffffffffffffffffffffffffff16815260200191505060405180910390f35b34156102f157600080fd5b6102f9610c22565b6040518082815260200191505060405180910390f35b341561031a57600080fd5b610322610c2b565b604051808381526020018281526020019250505060405180910390f35b610347610c8a565b005b6000806000806000805442101561035f57600080fd5b602560014303406001900481151561037357fe5b069450600093505b6004805490508410156105e45760009250600091506000600281111561039d57fe5b6004858154811015156103ac57fe5b906000526020600020906003020160000160009054906101000a900460ff1660028111156103d657fe5b141561040e57846004858154811015156103ec57fe5b906000526020600020906003020160010154141561040957600192505b6104f9565b60028081111561041a57fe5b60048581548110151561042957fe5b906000526020600020906003020160000160009054906101000a900460ff16600281111561045357fe5b1415610484576000851180156104755750600060028681151561047257fe5b06145b1561047f57600192505b6104f8565b6001600281111561049157fe5b6004858154811015156104a057fe5b906000526020600020906003020160000160009054906101000a900460ff1660028111156104ca57fe5b14156104f7576000851180156104ec575060016002868115156104e957fe5b06145b156104f657600192505b5b5b5b82156105d75760048481548110151561050e57fe5b906000526020600020906003020160000160019054906101000a900473ffffffffffffffffffffffffffffffffffffffff1673ffffffffffffffffffffffffffffffffffffffff166108fc61058f60048781548110151561056b57fe5b906000526020600020906003020160000160009054906101000a900460ff166106bf565b60048781548110151561059e57fe5b906000526020600020906003020160020154029081150290604051600060405180830381858888f1935050505015156105d657600080fd5b5b838060010194505061037b565b6000549050600154810160008190555060006004816106039190610ec1565b50846003819055507f635405568db0e3818a3ddd46a30dfdfb58fdb8d10b69258ea0c1abbbb7fc55f685600054604051808381526020018281526020019250505060405180910390a15050505050565b60048181548110151561066257fe5b90600052602060002090600302016000915090508060000160009054906101000a900460ff16908060000160019054906101000a900473ffffffffffffffffffffffffffffffffffffffff16908060010154908060020154905084565b60008060028111156106cd57fe5b8260028111156106d957fe5b14156106e85760239050610735565b6002808111156106f457fe5b82600281111561070057fe5b148061072257506001600281111561071457fe5b82600281111561072057fe5b145b156107305760029050610735565b600090505b919050565b60005481565b6000600354905090565b600034141561075857600080fd5b6000806000809150600090505b6004805490508110156107db5760048181548110151561078157fe5b9060005260206000209060030201600201546107c96004838154811015156107a557fe5b906000526020600020906003020160000160009054906101000a900460ff166106bf565b02820191508080600101915050610765565b346107e5846106bf565b02820191503073ffffffffffffffffffffffffffffffffffffffff163182111561080e57600080fd5b602484111561081c57600080fd5b600480548060010182816108309190610ef3565b916000526020600020906003020160006080604051908101604052806000600281111561085957fe5b81526020013373ffffffffffffffffffffffffffffffffffffffff16815260200188815260200134815250909190915060008201518160000160006101000a81548160ff021916908360028111156108ad57fe5b021790555060208201518160000160016101000a81548173ffffffffffffffffffffffffffffffffffffffff021916908373ffffffffffffffffffffffffffffffffffffffff16021790555060408201518160010155606082015181600201555050507f750445a4568c66d1bb09b9681263c26e04964273a9b92f7dc2011faa7ed1252f600480549050338634604051808581526020018473ffffffffffffffffffffffffffffffffffffffff1673ffffffffffffffffffffffffffffffffffffffff16815260200183815260200182815260200194505050505060405180910390a150505050565b6000600260009054906101000a900473ffffffffffffffffffffffffffffffffffffffff16905090565b60035481565b60003414156109d457600080fd5b600260008060009150600090505b600480549050811015610a58576004818154811015156109fe57fe5b906000526020600020906003020160020154610a46600483815481101515610a2257fe5b906000526020600020906003020160000160009054906101000a900460ff166106bf565b028201915080806001019150506109e2565b34610a62846106bf565b02820191503073ffffffffffffffffffffffffffffffffffffffff1631821115610a8b57600080fd5b60048054806001018281610a9f9190610ef3565b91600052602060002090600302016000608060405190810160405280600280811115610ac757fe5b81526020013373ffffffffffffffffffffffffffffffffffffffff1681526020016000815260200134815250909190915060008201518160000160006101000a81548160ff02191690836002811115610b1c57fe5b021790555060208201518160000160016101000a81548173ffffffffffffffffffffffffffffffffffffffff021916908373ffffffffffffffffffffffffffffffffffffffff16021790555060408201518160010155606082015181600201555050507f727f4862f6185925b06a1ff056c622296fe8c2c2158a21dadac2afc9cd48f18e6004805490503334604051808481526020018373ffffffffffffffffffffffffffffffffffffffff1673ffffffffffffffffffffffffffffffffffffffff168152602001828152602001935050505060405180910390a1505050565b600260009054906101000a900473ffffffffffffffffffffffffffffffffffffffff1681565b60008054905090565b60008060008060009150600090505b600480549050811015610c7957600481815481101515610c5657fe5b906000526020600020906003020160020154820191508080600101915050610c3a565b600480549050829350935050509091565b6000341415610c9857600080fd5b600260008060009150600090505b600480549050811015610d1c57600481815481101515610cc257fe5b906000526020600020906003020160020154610d0a600483815481101515610ce657fe5b906000526020600020906003020160000160009054906101000a900460ff166106bf565b02820191508080600101915050610ca6565b34610d26846106bf565b02820191503073ffffffffffffffffffffffffffffffffffffffff1631821115610d4f57600080fd5b60048054806001018281610d639190610ef3565b9160005260206000209060030201600060806040519081016040528060016002811115610d8c57fe5b81526020013373ffffffffffffffffffffffffffffffffffffffff1681526020016000815260200134815250909190915060008201518160000160006101000a81548160ff02191690836002811115610de157fe5b021790555060208201518160000160016101000a81548173ffffffffffffffffffffffffffffffffffffffff021916908373ffffffffffffffffffffffffffffffffffffffff16021790555060408201518160010155606082015181600201555050507f4bd79f00dd12ecd87494d18dd14d9c340735b2e8c213f51bd2ebb9684bb105376004805490503334604051808481526020018373ffffffffffffffffffffffffffffffffffffffff1673ffffffffffffffffffffffffffffffffffffffff168152602001828152602001935050505060405180910390a1505050565b815481835581811511610eee57600302816003028360005260206000209182019101610eed9190610f25565b5b505050565b815481835581811511610f2057600302816003028360005260206000209182019101610f1f9190610f25565b5b505050565b610f8c91905b80821115610f8857600080820160006101000a81549060ff02191690556000820160016101000a81549073ffffffffffffffffffffffffffffffffffffffff02191690556001820160009055600282016000905550600301610f2b565b5090565b905600a165627a7a723058201794a74260bd852ef218f084c5a65cdddb3f550ca102fce212a79eef35f545b30029",
  "source": "pragma solidity ^0.4.2;\r\n\r\ncontract Roulette {\r\n    uint public nextRoundTimestamp;\r\n    uint _interval;\r\n    address public _owner;\r\n    uint public result_number;\r\n    \r\n    enum BetType { Single, Odd, Even }\r\n    struct Bet {\r\n        BetType betType;\r\n        address player;\r\n        uint number;\r\n        uint value;\r\n    }\r\n    Bet[] public bets;\r\n\r\n    event Finished(uint number, uint nextRoundTimestamp);\r\n    event NewSingleBet(uint bet, address player, uint number, uint value);\r\n    event NewEvenBet(uint bet, address player, uint value);\r\n    event NewOddBet(uint bet, address player, uint value);\r\n    \r\n    function Roulette(uint interval) payable {\r\n\t    _interval = interval;\r\n\t    _owner = msg.sender;\r\n\t    nextRoundTimestamp = now + _interval;\r\n        result_number = 0;\r\n    }\r\n\r\n    function getNextRoundTimestamp() public constant returns(uint) {\r\n        return nextRoundTimestamp;\r\n    }\r\n    function getResultNumber() public constant returns(uint){\r\n        return result_number;\r\n    }\r\n    function getOwner() public constant returns(address){\r\n        return _owner;\r\n    }\r\n\r\n    function getBetsCountAndValue() public constant returns(uint, uint) {\r\n        uint value = 0;\r\n        for (uint i = 0; i < bets.length; i++) {\r\n            value += bets[i].value;\r\n        }\r\n        return (bets.length, value);\r\n    }\r\n\r\n    function betSingle(uint number) payable public transactionMustContainEther() bankMustBeAbleToPayForBetType(BetType.Single) {\r\n        if (number > 36) throw;\r\n        bets.push(Bet({\r\n            betType: BetType.Single,\r\n            player: msg.sender,\r\n            number: number,\r\n            value: msg.value\r\n        }));\r\n        NewSingleBet(bets.length,msg.sender,number,msg.value);\r\n    }\r\n\r\n    function betEven() payable public transactionMustContainEther() bankMustBeAbleToPayForBetType(BetType.Even) {\r\n        bets.push(Bet({\r\n            betType: BetType.Even,\r\n            player: msg.sender,\r\n            number: 0,\r\n            value: msg.value\r\n        }));\r\n        NewEvenBet(bets.length,msg.sender,msg.value);\r\n    }\r\n\r\n    function betOdd() payable public transactionMustContainEther() bankMustBeAbleToPayForBetType(BetType.Even) {\r\n        bets.push(Bet({\r\n            betType: BetType.Odd,\r\n            player: msg.sender,\r\n            number: 0,\r\n            value: msg.value\r\n        }));\r\n        NewOddBet(bets.length,msg.sender,msg.value);\r\n    }\r\n\r\n    function launch() public {\r\n        if (now < nextRoundTimestamp) throw;\r\n\r\n        uint number = uint(block.blockhash(block.number - 1)) % 37;\r\n        \r\n        for (uint i = 0; i < bets.length; i++) {\r\n            bool won = false;\r\n            uint payout = 0;\r\n            if (bets[i].betType == BetType.Single) {\r\n                if (bets[i].number == number) {\r\n                    won = true;\r\n                }\r\n            } else if (bets[i].betType == BetType.Even) {\r\n                if (number > 0 && number % 2 == 0) {\r\n                    won = true;\r\n                }\r\n            } else if (bets[i].betType == BetType.Odd) {\r\n                if (number > 0 && number % 2 == 1) {\r\n                    won = true;\r\n                }\r\n            }\r\n            if (won) {\r\n                if (!bets[i].player.send(bets[i].value * getPayoutForType(bets[i].betType))) {\r\n                    throw;\r\n                }\r\n            }\r\n        }\r\n\r\n        uint thisRoundTimestamp = nextRoundTimestamp;\r\n        nextRoundTimestamp = thisRoundTimestamp + _interval;\r\n\r\n        bets.length = 0;\r\n        result_number = number;\r\n        Finished(number, nextRoundTimestamp);\r\n    }\r\n\r\n    function getPayoutForType(BetType betType) constant returns(uint) {\r\n        if (betType == BetType.Single) return 35;\r\n        if (betType == BetType.Even || betType == BetType.Odd) return 2;\r\n        return 0;\r\n    }\r\n\r\n    modifier transactionMustContainEther() {\r\n        if (msg.value == 0) throw;\r\n        _;\r\n    }\r\n\r\n    modifier bankMustBeAbleToPayForBetType(BetType betType) {\r\n        uint necessaryBalance = 0;\r\n        for (uint i = 0; i < bets.length; i++) {\r\n            necessaryBalance += getPayoutForType(bets[i].betType) * bets[i].value;\r\n        }\r\n        necessaryBalance += getPayoutForType(betType) * msg.value;\r\n        if (necessaryBalance > this.balance) throw;\r\n        _;\r\n    }\r\n}",
  "sourcePath": "/mnt/c/Users/valentin/workspace/tutorielContratEthereum/contracts/Roulette.sol",
  "compiler": {
    "name": "solc",
    "version": "0.4.18+commit.9cf6e910.Emscripten.clang"
  },
  "schemaVersion": "1.0.1",
  "updatedAt": "2017-12-31T23:58:31.821Z"
}